{
  "_format": "hh-sol-artifact-1",
  "contractName": "Election",
  "sourceName": "contracts/voting.sol",
  "abi": [
    {
      "anonymous": false,
      "inputs": [
        {
          "indexed": true,
          "internalType": "string",
          "name": "electionID",
          "type": "string"
        }
      ],
      "name": "ElectionEnded",
      "type": "event"
    },
    {
      "anonymous": false,
      "inputs": [
        {
          "indexed": true,
          "internalType": "string",
          "name": "electionID",
          "type": "string"
        },
        {
          "indexed": true,
          "internalType": "string",
          "name": "voterID",
          "type": "string"
        },
        {
          "indexed": true,
          "internalType": "string",
          "name": "candidateId",
          "type": "string"
        }
      ],
      "name": "VoteCasted",
      "type": "event"
    },
    {
      "inputs": [
        {
          "internalType": "string",
          "name": "",
          "type": "string"
        },
        {
          "internalType": "string",
          "name": "",
          "type": "string"
        }
      ],
      "name": "candidateVotes",
      "outputs": [
        {
          "internalType": "uint256",
          "name": "",
          "type": "uint256"
        }
      ],
      "stateMutability": "view",
      "type": "function"
    },
    {
      "inputs": [
        {
          "internalType": "string",
          "name": "",
          "type": "string"
        }
      ],
      "name": "electionEnded",
      "outputs": [
        {
          "internalType": "bool",
          "name": "",
          "type": "bool"
        }
      ],
      "stateMutability": "view",
      "type": "function"
    },
    {
      "inputs": [
        {
          "internalType": "string",
          "name": "_electionID",
          "type": "string"
        }
      ],
      "name": "endElection",
      "outputs": [],
      "stateMutability": "nonpayable",
      "type": "function"
    },
    {
      "inputs": [
        {
          "internalType": "string",
          "name": "_electionID",
          "type": "string"
        },
        {
          "internalType": "string[]",
          "name": "_candidateIds",
          "type": "string[]"
        }
      ],
      "name": "getAllCandidateVotes",
      "outputs": [
        {
          "components": [
            {
              "internalType": "string",
              "name": "candidateId",
              "type": "string"
            },
            {
              "internalType": "uint256",
              "name": "votes",
              "type": "uint256"
            }
          ],
          "internalType": "struct Election.CandidateInfo[]",
          "name": "candidateVotesInfo",
          "type": "tuple[]"
        }
      ],
      "stateMutability": "view",
      "type": "function"
    },
    {
      "inputs": [
        {
          "internalType": "string",
          "name": "_electionID",
          "type": "string"
        },
        {
          "internalType": "string",
          "name": "_candidateId",
          "type": "string"
        }
      ],
      "name": "getVotes",
      "outputs": [
        {
          "internalType": "uint256",
          "name": "",
          "type": "uint256"
        }
      ],
      "stateMutability": "view",
      "type": "function"
    },
    {
      "inputs": [
        {
          "internalType": "string",
          "name": "_electionID",
          "type": "string"
        }
      ],
      "name": "hasElectionEnded",
      "outputs": [
        {
          "internalType": "bool",
          "name": "",
          "type": "bool"
        }
      ],
      "stateMutability": "view",
      "type": "function"
    },
    {
      "inputs": [
        {
          "internalType": "string",
          "name": "_electionID",
          "type": "string"
        },
        {
          "internalType": "string",
          "name": "_voterID",
          "type": "string"
        }
      ],
      "name": "hasUserVoted",
      "outputs": [
        {
          "internalType": "bool",
          "name": "",
          "type": "bool"
        }
      ],
      "stateMutability": "view",
      "type": "function"
    },
    {
      "inputs": [
        {
          "internalType": "string",
          "name": "",
          "type": "string"
        },
        {
          "internalType": "string",
          "name": "",
          "type": "string"
        }
      ],
      "name": "hasVoted",
      "outputs": [
        {
          "internalType": "bool",
          "name": "",
          "type": "bool"
        }
      ],
      "stateMutability": "view",
      "type": "function"
    },
    {
      "inputs": [
        {
          "internalType": "string",
          "name": "_electionID",
          "type": "string"
        },
        {
          "internalType": "string",
          "name": "_voterID",
          "type": "string"
        },
        {
          "internalType": "string",
          "name": "_candidateId",
          "type": "string"
        }
      ],
      "name": "vote",
      "outputs": [],
      "stateMutability": "nonpayable",
      "type": "function"
    }
  ],
  "bytecode": "0x608060405234801561001057600080fd5b50611224806100206000396000f3fe608060405234801561001057600080fd5b50600436106100925760003560e01c80637d64f2d1116100665780637d64f2d1146101575780638fc4a3071461018757806395f59fe1146101b7578063ab4375a7146101d3578063fe43bc071461020357610092565b8062c306aa1461009757806363245c73146100c757806366a038bb146100f7578063735f670d14610127575b600080fd5b6100b160048036038101906100ac9190610ba5565b61021f565b6040516100be9190610fc5565b60405180910390f35b6100e160048036038101906100dc9190610af8565b610270565b6040516100ee9190610f4a565b60405180910390f35b610111600480360381019061010c9190610ba5565b6102a6565b60405161011e9190610f4a565b60405180910390f35b610141600480360381019061013c9190610ba5565b610301565b60405161014e9190610f4a565b60405180910390f35b610171600480360381019061016c9190610af8565b610352565b60405161017e9190610f4a565b60405180910390f35b6101a1600480360381019061019c9190610b39565b610387565b6040516101ae9190610f28565b60405180910390f35b6101d160048036038101906101cc9190610c11565b610648565b005b6101ed60048036038101906101e89190610ba5565b6108c2565b6040516101fa9190610fc5565b60405180910390f35b61021d60048036038101906102189190610af8565b610907565b005b60018280516020810182018051848252602083016020850120818352809550505050505081805160208101820180518482526020830160208501208183528095505050505050600091509150505481565b6002818051602081018201805184825260208301602085012081835280955050505050506000915054906101000a900460ff1681565b600082805160208101820180518482526020830160208501208183528095505050505050818051602081018201805184825260208301602085012081835280955050505050506000915091509054906101000a900460ff1681565b600080836040516103129190610f11565b90815260200160405180910390208260405161032e9190610f11565b908152602001604051809103902060009054906101000a900460ff16905092915050565b60006002826040516103649190610f11565b908152602001604051809103902060009054906101000a900460ff169050919050565b60606000825167ffffffffffffffff8111156103cc577f4e487b7100000000000000000000000000000000000000000000000000000000600052604160045260246000fd5b60405190808252806020026020018201604052801561040557816020015b6103f26109ef565b8152602001906001900390816103ea5790505b5090506000805b845181101561051f576000858281518110610450577f4e487b7100000000000000000000000000000000000000000000000000000000600052603260045260246000fd5b60200260200101519050600060018860405161046c9190610f11565b9081526020016040518091039020826040516104889190610f11565b9081526020016040518091039020549050600081111561050a576040518060400160405280838152602001828152508585815181106104f0577f4e487b7100000000000000000000000000000000000000000000000000000000600052603260045260246000fd5b6020026020010181905250838061050690611136565b9450505b5050808061051790611136565b91505061040c565b508067ffffffffffffffff811115610560577f4e487b7100000000000000000000000000000000000000000000000000000000600052604160045260246000fd5b60405190808252806020026020018201604052801561059957816020015b6105866109ef565b81526020019060019003908161057e5790505b50925060005b8181101561063f578281815181106105e0577f4e487b7100000000000000000000000000000000000000000000000000000000600052603260045260246000fd5b6020026020010151848281518110610621577f4e487b7100000000000000000000000000000000000000000000000000000000600052603260045260246000fd5b6020026020010181905250808061063790611136565b91505061059f565b50505092915050565b828260008260405161065a9190610f11565b9081526020016040518091039020816040516106769190610f11565b908152602001604051809103902060009054906101000a900460ff16156106d2576040517f08c379a00000000000000000000000000000000000000000000000000000000081526004016106c990610f65565b60405180910390fd5b6002826040516106e29190610f11565b908152602001604051809103902060009054906101000a900460ff161561073e576040517f08c379a000000000000000000000000000000000000000000000000000000000815260040161073590610f85565b60405180910390fd5b60028560405161074e9190610f11565b908152602001604051809103902060009054906101000a900460ff16156107aa576040517f08c379a00000000000000000000000000000000000000000000000000000000081526004016107a190610fa5565b60405180910390fd5b60016000866040516107bc9190610f11565b9081526020016040518091039020856040516107d89190610f11565b908152602001604051809103902060006101000a81548160ff02191690831515021790555060018560405161080d9190610f11565b9081526020016040518091039020836040516108299190610f11565b9081526020016040518091039020600081548092919061084890611136565b91905055508260405161085b9190610f11565b6040518091039020846040516108719190610f11565b6040518091039020866040516108879190610f11565b60405180910390207f55d6abdae2902a81f7b08dea88ada88d6ce858ae8ce1754c62b7dd2d8332d72260405160405180910390a45050505050565b60006001836040516108d49190610f11565b9081526020016040518091039020826040516108f09190610f11565b908152602001604051809103902054905092915050565b6002816040516109179190610f11565b908152602001604051809103902060009054906101000a900460ff1615610973576040517f08c379a000000000000000000000000000000000000000000000000000000000815260040161096a90610f85565b60405180910390fd5b60016002826040516109859190610f11565b908152602001604051809103902060006101000a81548160ff021916908315150217905550806040516109b89190610f11565b60405180910390207f2b77cefdcd8726daf4c7109ee1b2f7b6e696783da95bccd39ee47478e017d06760405160405180910390a250565b604051806040016040528060608152602001600081525090565b6000610a1c610a1784611011565b610fe0565b9050808382526020820190508260005b85811015610a5c5781358501610a428882610ace565b845260208401935060208301925050600181019050610a2c565b5050509392505050565b6000610a79610a748461103d565b610fe0565b905082815260208101848484011115610a9157600080fd5b610a9c8482856110f4565b509392505050565b600082601f830112610ab557600080fd5b8135610ac5848260208601610a09565b91505092915050565b600082601f830112610adf57600080fd5b8135610aef848260208601610a66565b91505092915050565b600060208284031215610b0a57600080fd5b600082013567ffffffffffffffff811115610b2457600080fd5b610b3084828501610ace565b91505092915050565b60008060408385031215610b4c57600080fd5b600083013567ffffffffffffffff811115610b6657600080fd5b610b7285828601610ace565b925050602083013567ffffffffffffffff811115610b8f57600080fd5b610b9b85828601610aa4565b9150509250929050565b60008060408385031215610bb857600080fd5b600083013567ffffffffffffffff811115610bd257600080fd5b610bde85828601610ace565b925050602083013567ffffffffffffffff811115610bfb57600080fd5b610c0785828601610ace565b9150509250929050565b600080600060608486031215610c2657600080fd5b600084013567ffffffffffffffff811115610c4057600080fd5b610c4c86828701610ace565b935050602084013567ffffffffffffffff811115610c6957600080fd5b610c7586828701610ace565b925050604084013567ffffffffffffffff811115610c9257600080fd5b610c9e86828701610ace565b9150509250925092565b6000610cb48383610eb6565b905092915050565b6000610cc78261107d565b610cd181856110a0565b935083602082028501610ce38561106d565b8060005b85811015610d1f5784840389528151610d008582610ca8565b9450610d0b83611093565b925060208a01995050600181019050610ce7565b50829750879550505050505092915050565b610d3a816110de565b82525050565b6000610d4b82611088565b610d5581856110b1565b9350610d65818560208601611103565b610d6e816111dd565b840191505092915050565b6000610d8482611088565b610d8e81856110d3565b9350610d9e818560208601611103565b80840191505092915050565b6000610db76028836110c2565b91507f566f7465722068617320616c726561647920766f74656420696e20746869732060008301527f656c656374696f6e0000000000000000000000000000000000000000000000006020830152604082019050919050565b6000610e1d601a836110c2565b91507f456c656374696f6e2068617320616c726561647920656e6465640000000000006000830152602082019050919050565b6000610e5d602a836110c2565b91507f456c656374696f6e2068617320656e6465642e20566f74696e67206973206e6f60008301527f7420616c6c6f7765642e000000000000000000000000000000000000000000006020830152604082019050919050565b60006040830160008301518482036000860152610ed38282610d40565b9150506020830151610ee86020860182610ef3565b508091505092915050565b610efc816110ea565b82525050565b610f0b816110ea565b82525050565b6000610f1d8284610d79565b915081905092915050565b60006020820190508181036000830152610f428184610cbc565b905092915050565b6000602082019050610f5f6000830184610d31565b92915050565b60006020820190508181036000830152610f7e81610daa565b9050919050565b60006020820190508181036000830152610f9e81610e10565b9050919050565b60006020820190508181036000830152610fbe81610e50565b9050919050565b6000602082019050610fda6000830184610f02565b92915050565b6000604051905081810181811067ffffffffffffffff82111715611007576110066111ae565b5b8060405250919050565b600067ffffffffffffffff82111561102c5761102b6111ae565b5b602082029050602081019050919050565b600067ffffffffffffffff821115611058576110576111ae565b5b601f19601f8301169050602081019050919050565b6000819050602082019050919050565b600081519050919050565b600081519050919050565b6000602082019050919050565b600082825260208201905092915050565b600082825260208201905092915050565b600082825260208201905092915050565b600081905092915050565b60008115159050919050565b6000819050919050565b82818337600083830152505050565b60005b83811015611121578082015181840152602081019050611106565b83811115611130576000848401525b50505050565b6000611141826110ea565b91507fffffffffffffffffffffffffffffffffffffffffffffffffffffffffffffffff8214156111745761117361117f565b5b600182019050919050565b7f4e487b7100000000000000000000000000000000000000000000000000000000600052601160045260246000fd5b7f4e487b7100000000000000000000000000000000000000000000000000000000600052604160045260246000fd5b6000601f19601f830116905091905056fea26469706673582212208e111233cc33876ded8dd2a040c04124f9303f3b5d0f893174fdc1c85204093464736f6c63430008000033",
  "linkReferences": {},
  "deployedLinkReferences": {}
}